{
  "_format": "hh-sol-artifact-1",
  "contractName": "Voting",
  "sourceName": "contracts/Voting.sol",
  "abi": [
    {
      "inputs": [],
      "stateMutability": "nonpayable",
      "type": "constructor"
    },
    {
      "anonymous": false,
      "inputs": [
        {
          "indexed": false,
          "internalType": "uint256",
          "name": "electionId",
          "type": "uint256"
        },
        {
          "indexed": false,
          "internalType": "uint256",
          "name": "candidateId",
          "type": "uint256"
        },
        {
          "indexed": false,
          "internalType": "string",
          "name": "name",
          "type": "string"
        },
        {
          "indexed": false,
          "internalType": "string",
          "name": "post",
          "type": "string"
        }
      ],
      "name": "CandidateAdded",
      "type": "event"
    },
    {
      "anonymous": false,
      "inputs": [
        {
          "indexed": false,
          "internalType": "uint256",
          "name": "electionId",
          "type": "uint256"
        },
        {
          "indexed": false,
          "internalType": "string",
          "name": "name",
          "type": "string"
        }
      ],
      "name": "ElectionCreated",
      "type": "event"
    },
    {
      "anonymous": false,
      "inputs": [
        {
          "indexed": false,
          "internalType": "uint256",
          "name": "electionId",
          "type": "uint256"
        }
      ],
      "name": "ElectionEnded",
      "type": "event"
    },
    {
      "anonymous": false,
      "inputs": [
        {
          "indexed": false,
          "internalType": "uint256",
          "name": "electionId",
          "type": "uint256"
        },
        {
          "indexed": false,
          "internalType": "uint256",
          "name": "candidateId",
          "type": "uint256"
        },
        {
          "indexed": false,
          "internalType": "address",
          "name": "voter",
          "type": "address"
        },
        {
          "indexed": false,
          "internalType": "string",
          "name": "voterName",
          "type": "string"
        }
      ],
      "name": "Voted",
      "type": "event"
    },
    {
      "inputs": [
        {
          "internalType": "uint256",
          "name": "electionId",
          "type": "uint256"
        },
        {
          "internalType": "string",
          "name": "post",
          "type": "string"
        },
        {
          "internalType": "string",
          "name": "name",
          "type": "string"
        }
      ],
      "name": "addCandidate",
      "outputs": [],
      "stateMutability": "nonpayable",
      "type": "function"
    },
    {
      "inputs": [],
      "name": "admin",
      "outputs": [
        {
          "internalType": "address",
          "name": "",
          "type": "address"
        }
      ],
      "stateMutability": "view",
      "type": "function"
    },
    {
      "inputs": [
        {
          "internalType": "string",
          "name": "name",
          "type": "string"
        },
        {
          "internalType": "uint256",
          "name": "duration",
          "type": "uint256"
        }
      ],
      "name": "createElection",
      "outputs": [],
      "stateMutability": "nonpayable",
      "type": "function"
    },
    {
      "inputs": [],
      "name": "electionCount",
      "outputs": [
        {
          "internalType": "uint256",
          "name": "",
          "type": "uint256"
        }
      ],
      "stateMutability": "view",
      "type": "function"
    },
    {
      "inputs": [
        {
          "internalType": "uint256",
          "name": "",
          "type": "uint256"
        }
      ],
      "name": "elections",
      "outputs": [
        {
          "internalType": "string",
          "name": "name",
          "type": "string"
        },
        {
          "internalType": "uint256",
          "name": "electionId",
          "type": "uint256"
        },
        {
          "internalType": "bool",
          "name": "isActive",
          "type": "bool"
        },
        {
          "internalType": "uint256",
          "name": "candidateCount",
          "type": "uint256"
        },
        {
          "internalType": "uint256",
          "name": "startTime",
          "type": "uint256"
        },
        {
          "internalType": "uint256",
          "name": "duration",
          "type": "uint256"
        }
      ],
      "stateMutability": "view",
      "type": "function"
    },
    {
      "inputs": [
        {
          "internalType": "uint256",
          "name": "electionId",
          "type": "uint256"
        }
      ],
      "name": "endElection",
      "outputs": [],
      "stateMutability": "nonpayable",
      "type": "function"
    },
    {
      "inputs": [
        {
          "internalType": "uint256",
          "name": "electionId",
          "type": "uint256"
        }
      ],
      "name": "getResults",
      "outputs": [
        {
          "internalType": "string",
          "name": "",
          "type": "string"
        },
        {
          "internalType": "uint256[]",
          "name": "",
          "type": "uint256[]"
        }
      ],
      "stateMutability": "view",
      "type": "function"
    },
    {
      "inputs": [
        {
          "internalType": "uint256",
          "name": "electionId",
          "type": "uint256"
        },
        {
          "internalType": "string",
          "name": "voterName",
          "type": "string"
        }
      ],
      "name": "registerVoter",
      "outputs": [],
      "stateMutability": "nonpayable",
      "type": "function"
    },
    {
      "inputs": [
        {
          "internalType": "uint256",
          "name": "electionId",
          "type": "uint256"
        },
        {
          "internalType": "uint256",
          "name": "candidateId",
          "type": "uint256"
        }
      ],
      "name": "vote",
      "outputs": [],
      "stateMutability": "nonpayable",
      "type": "function"
    }
  ],
  "bytecode": "0x6080604052348015600f57600080fd5b5033600160006101000a81548173ffffffffffffffffffffffffffffffffffffffff021916908373ffffffffffffffffffffffffffffffffffffffff160217905550611c9c806100606000396000f3fe608060405234801561001057600080fd5b50600436106100935760003560e01c8063997d283011610066578063997d2830146101365780639c98bcbb14610154578063b384abef14610170578063e6c62efc1461018c578063f851a440146101a857610093565b8063432cf2ce146100985780635e6fef01146100b45780636bc61e11146100e957806381a60c0d14610105575b600080fd5b6100b260048036038101906100ad9190610f15565b6101c6565b005b6100ce60048036038101906100c99190610f71565b610307565b6040516100e096959493929190611047565b60405180910390f35b61010360048036038101906100fe91906110af565b6103d8565b005b61011f600480360381019061011a9190610f71565b6104ed565b60405161012d9291906111c9565b60405180910390f35b61013e61065d565b60405161014b9190611200565b60405180910390f35b61016e60048036038101906101699190610f71565b610663565b005b61018a6004803603810190610185919061121b565b61075b565b005b6101a660048036038101906101a1919061125b565b610b74565b005b6101b0610d5f565b6040516101bd9190611327565b60405180910390f35b600160009054906101000a900473ffffffffffffffffffffffffffffffffffffffff1673ffffffffffffffffffffffffffffffffffffffff163373ffffffffffffffffffffffffffffffffffffffff1614610256576040517f08c379a000000000000000000000000000000000000000000000000000000000815260040161024d906113b4565b60405180910390fd5b6002600081548092919061026990611403565b9190505550600080600060025481526020019081526020016000209050828160000190816102979190611657565b5042816006018190555081816007018190555060018160020160006101000a81548160ff0219169083151502179055507f52be7c4e77b4de76b7607d621492061fe13b58597e72dfb5e51ab8f6187ed141600254846040516102fa929190611729565b60405180910390a1505050565b600060205280600052604060002060009150905080600001805461032a9061147a565b80601f01602080910402602001604051908101604052809291908181526020018280546103569061147a565b80156103a35780601f10610378576101008083540402835291602001916103a3565b820191906000526020600020905b81548152906001019060200180831161038657829003601f168201915b5050505050908060010154908060020160009054906101000a900460ff16908060050154908060060154908060070154905086565b8160008082815260200190815260200160002060020160009054906101000a900460ff1661043b576040517f08c379a0000000000000000000000000000000000000000000000000000000008152600401610432906117a5565b60405180910390fd5b600080600085815260200190815260200160002090506000835111610495576040517f08c379a000000000000000000000000000000000000000000000000000000000815260040161048c90611811565b60405180910390fd5b828160040160003373ffffffffffffffffffffffffffffffffffffffff1673ffffffffffffffffffffffffffffffffffffffff16815260200190815260200160002060000190816104e69190611657565b5050505050565b606080600080600085815260200190815260200160002090506000816005015467ffffffffffffffff81111561052657610525610db4565b5b6040519080825280602002602001820160405280156105545781602001602082028036833780820191505090505b5090506000600190505b826005015481116105c05782600301600082815260200190815260200160002060020154826001836105909190611831565b815181106105a1576105a0611865565b5b60200260200101818152505080806105b890611403565b91505061055e565b5081600001818180546105d29061147a565b80601f01602080910402602001604051908101604052809291908181526020018280546105fe9061147a565b801561064b5780601f106106205761010080835404028352916020019161064b565b820191906000526020600020905b81548152906001019060200180831161062e57829003601f168201915b50505050509150935093505050915091565b60025481565b600160009054906101000a900473ffffffffffffffffffffffffffffffffffffffff1673ffffffffffffffffffffffffffffffffffffffff163373ffffffffffffffffffffffffffffffffffffffff16146106f3576040517f08c379a00000000000000000000000000000000000000000000000000000000081526004016106ea906113b4565b60405180910390fd5b600080600083815260200190815260200160002060020160006101000a81548160ff0219169083151502179055507f562cd572b2ba3b666cd989fc4ca98419ec81e75f04528df9d9d76fdb7807ee71816040516107509190611200565b60405180910390a150565b8160008082815260200190815260200160002060020160009054906101000a900460ff166107be576040517f08c379a00000000000000000000000000000000000000000000000000000000081526004016107b5906117a5565b60405180910390fd5b82600080600083815260200190815260200160002060040160003373ffffffffffffffffffffffffffffffffffffffff1673ffffffffffffffffffffffffffffffffffffffff16815260200190815260200160002060000180546108219061147a565b905011610863576040517f08c379a000000000000000000000000000000000000000000000000000000000815260040161085a906118e0565b60405180910390fd5b836000808281526020019081526020016000206006015442101580156108be575060008082815260200190815260200160002060070154600080838152602001908152602001600020600601546108ba9190611900565b4211155b6108fd576040517f08c379a00000000000000000000000000000000000000000000000000000000081526004016108f490611980565b60405180910390fd5b6000806000878152602001908152602001600020905060008160030160008781526020019081526020016000209050600086118015610940575081600501548611155b61097f576040517f08c379a0000000000000000000000000000000000000000000000000000000008152600401610976906119ec565b60405180910390fd5b8160040160003373ffffffffffffffffffffffffffffffffffffffff1673ffffffffffffffffffffffffffffffffffffffff168152602001908152602001600020600101816003016040516109d49190611a9a565b908152602001604051809103902060009054906101000a900460ff1615610a30576040517f08c379a0000000000000000000000000000000000000000000000000000000008152600401610a2790611b23565b60405180910390fd5b8160030160008781526020019081526020016000206002016000815480929190610a5990611403565b919050555060018260040160003373ffffffffffffffffffffffffffffffffffffffff1673ffffffffffffffffffffffffffffffffffffffff16815260200190815260200160002060010182600301604051610ab59190611a9a565b908152602001604051809103902060006101000a81548160ff0219169083151502179055507f0c2cbb3e7353d439a3f3911964eca45de526384d55437aa41582306ccb3d4dec8787336000808c815260200190815260200160002060040160003373ffffffffffffffffffffffffffffffffffffffff1673ffffffffffffffffffffffffffffffffffffffff168152602001908152602001600020600001604051610b639493929190611bc7565b60405180910390a150505050505050565b600160009054906101000a900473ffffffffffffffffffffffffffffffffffffffff1673ffffffffffffffffffffffffffffffffffffffff163373ffffffffffffffffffffffffffffffffffffffff1614610c04576040517f08c379a0000000000000000000000000000000000000000000000000000000008152600401610bfb906113b4565b60405180910390fd5b8260008082815260200190815260200160002060020160009054906101000a900460ff16610c67576040517f08c379a0000000000000000000000000000000000000000000000000000000008152600401610c5e906117a5565b60405180910390fd5b60008060008681526020019081526020016000209050806005016000815480929190610c9290611403565b919050555060008160050154905060405180608001604052808281526020018581526020016000815260200186815250826003016000838152602001908152602001600020600082015181600001556020820151816001019081610cf69190611657565b50604082015181600201556060820151816003019081610d169190611657565b509050507f503cfceb0fb2178c5fb47ff394c816e4075abc8066c3dcb16d08a76847ee6e1686828688604051610d4f9493929190611c13565b60405180910390a1505050505050565b600160009054906101000a900473ffffffffffffffffffffffffffffffffffffffff1681565b6000604051905090565b600080fd5b600080fd5b600080fd5b600080fd5b6000601f19601f8301169050919050565b7f4e487b7100000000000000000000000000000000000000000000000000000000600052604160045260246000fd5b610dec82610da3565b810181811067ffffffffffffffff82111715610e0b57610e0a610db4565b5b80604052505050565b6000610e1e610d85565b9050610e2a8282610de3565b919050565b600067ffffffffffffffff821115610e4a57610e49610db4565b5b610e5382610da3565b9050602081019050919050565b82818337600083830152505050565b6000610e82610e7d84610e2f565b610e14565b905082815260208101848484011115610e9e57610e9d610d9e565b5b610ea9848285610e60565b509392505050565b600082601f830112610ec657610ec5610d99565b5b8135610ed6848260208601610e6f565b91505092915050565b6000819050919050565b610ef281610edf565b8114610efd57600080fd5b50565b600081359050610f0f81610ee9565b92915050565b60008060408385031215610f2c57610f2b610d8f565b5b600083013567ffffffffffffffff811115610f4a57610f49610d94565b5b610f5685828601610eb1565b9250506020610f6785828601610f00565b9150509250929050565b600060208284031215610f8757610f86610d8f565b5b6000610f9584828501610f00565b91505092915050565b600081519050919050565b600082825260208201905092915050565b60005b83811015610fd8578082015181840152602081019050610fbd565b60008484015250505050565b6000610fef82610f9e565b610ff98185610fa9565b9350611009818560208601610fba565b61101281610da3565b840191505092915050565b61102681610edf565b82525050565b60008115159050919050565b6110418161102c565b82525050565b600060c08201905081810360008301526110618189610fe4565b9050611070602083018861101d565b61107d6040830187611038565b61108a606083018661101d565b611097608083018561101d565b6110a460a083018461101d565b979650505050505050565b600080604083850312156110c6576110c5610d8f565b5b60006110d485828601610f00565b925050602083013567ffffffffffffffff8111156110f5576110f4610d94565b5b61110185828601610eb1565b9150509250929050565b600081519050919050565b600082825260208201905092915050565b6000819050602082019050919050565b61114081610edf565b82525050565b60006111528383611137565b60208301905092915050565b6000602082019050919050565b60006111768261110b565b6111808185611116565b935061118b83611127565b8060005b838110156111bc5781516111a38882611146565b97506111ae8361115e565b92505060018101905061118f565b5085935050505092915050565b600060408201905081810360008301526111e38185610fe4565b905081810360208301526111f7818461116b565b90509392505050565b6000602082019050611215600083018461101d565b92915050565b6000806040838503121561123257611231610d8f565b5b600061124085828601610f00565b925050602061125185828601610f00565b9150509250929050565b60008060006060848603121561127457611273610d8f565b5b600061128286828701610f00565b935050602084013567ffffffffffffffff8111156112a3576112a2610d94565b5b6112af86828701610eb1565b925050604084013567ffffffffffffffff8111156112d0576112cf610d94565b5b6112dc86828701610eb1565b9150509250925092565b600073ffffffffffffffffffffffffffffffffffffffff82169050919050565b6000611311826112e6565b9050919050565b61132181611306565b82525050565b600060208201905061133c6000830184611318565b92915050565b7f4f6e6c792061646d696e2063616e20706572666f726d2074686973206163746960008201527f6f6e000000000000000000000000000000000000000000000000000000000000602082015250565b600061139e602283610fa9565b91506113a982611342565b604082019050919050565b600060208201905081810360008301526113cd81611391565b9050919050565b7f4e487b7100000000000000000000000000000000000000000000000000000000600052601160045260246000fd5b600061140e82610edf565b91507fffffffffffffffffffffffffffffffffffffffffffffffffffffffffffffffff82036114405761143f6113d4565b5b600182019050919050565b7f4e487b7100000000000000000000000000000000000000000000000000000000600052602260045260246000fd5b6000600282049050600182168061149257607f821691505b6020821081036114a5576114a461144b565b5b50919050565b60008190508160005260206000209050919050565b60006020601f8301049050919050565b600082821b905092915050565b60006008830261150d7fffffffffffffffffffffffffffffffffffffffffffffffffffffffffffffffff826114d0565b61151786836114d0565b95508019841693508086168417925050509392505050565b6000819050919050565b600061155461154f61154a84610edf565b61152f565b610edf565b9050919050565b6000819050919050565b61156e83611539565b61158261157a8261155b565b8484546114dd565b825550505050565b600090565b61159761158a565b6115a2818484611565565b505050565b5b818110156115c6576115bb60008261158f565b6001810190506115a8565b5050565b601f82111561160b576115dc816114ab565b6115e5846114c0565b810160208510156115f4578190505b611608611600856114c0565b8301826115a7565b50505b505050565b600082821c905092915050565b600061162e60001984600802611610565b1980831691505092915050565b6000611647838361161d565b9150826002028217905092915050565b61166082610f9e565b67ffffffffffffffff81111561167957611678610db4565b5b611683825461147a565b61168e8282856115ca565b600060209050601f8311600181146116c157600084156116af578287015190505b6116b9858261163b565b865550611721565b601f1984166116cf866114ab565b60005b828110156116f7578489015182556001820191506020850194506020810190506116d2565b868310156117145784890151611710601f89168261161d565b8355505b6001600288020188555050505b505050505050565b600060408201905061173e600083018561101d565b81810360208301526117508184610fe4565b90509392505050565b7f456c656374696f6e206973206e6f742061637469766500000000000000000000600082015250565b600061178f601683610fa9565b915061179a82611759565b602082019050919050565b600060208201905081810360008301526117be81611782565b9050919050565b7f4e616d652063616e6e6f7420626520656d707479000000000000000000000000600082015250565b60006117fb601483610fa9565b9150611806826117c5565b602082019050919050565b6000602082019050818103600083015261182a816117ee565b9050919050565b600061183c82610edf565b915061184783610edf565b925082820390508181111561185f5761185e6113d4565b5b92915050565b7f4e487b7100000000000000000000000000000000000000000000000000000000600052603260045260246000fd5b7f596f75206d7573742072656769737465722061206e616d650000000000000000600082015250565b60006118ca601883610fa9565b91506118d582611894565b602082019050919050565b600060208201905081810360008301526118f9816118bd565b9050919050565b600061190b82610edf565b915061191683610edf565b925082820190508082111561192e5761192d6113d4565b5b92915050565b7f456c656374696f6e20706572696f64206973206f766572000000000000000000600082015250565b600061196a601783610fa9565b915061197582611934565b602082019050919050565b600060208201905081810360008301526119998161195d565b9050919050565b7f496e76616c69642043616e64696461746520496e646578000000000000000000600082015250565b60006119d6601783610fa9565b91506119e1826119a0565b602082019050919050565b60006020820190508181036000830152611a05816119c9565b9050919050565b600081905092915050565b60008154611a248161147a565b611a2e8186611a0c565b94506001821660008114611a495760018114611a5e57611a91565b60ff1983168652811515820286019350611a91565b611a67856114ab565b60005b83811015611a8957815481890152600182019150602081019050611a6a565b838801955050505b50505092915050565b6000611aa68284611a17565b915081905092915050565b7f596f75206861766520616c726561647920766f74656420666f7220746869732060008201527f706f737400000000000000000000000000000000000000000000000000000000602082015250565b6000611b0d602483610fa9565b9150611b1882611ab1565b604082019050919050565b60006020820190508181036000830152611b3c81611b00565b9050919050565b60008154611b508161147a565b611b5a8186610fa9565b94506001821660008114611b755760018114611b8b57611bbe565b60ff198316865281151560200286019350611bbe565b611b94856114ab565b60005b83811015611bb657815481890152600182019150602081019050611b97565b808801955050505b50505092915050565b6000608082019050611bdc600083018761101d565b611be9602083018661101d565b611bf66040830185611318565b8181036060830152611c088184611b43565b905095945050505050565b6000608082019050611c28600083018761101d565b611c35602083018661101d565b8181036040830152611c478185610fe4565b90508181036060830152611c5b8184610fe4565b90509594505050505056fea2646970667358221220b2597e1b763bdfe5fc84b50bb12a25fdc30577ca358dd5cb6d0ec80dbe1004e564736f6c634300081c0033",
  "linkReferences": {},
  "deployedLinkReferences": {}
}